:020000040800F2
:10000000001000209911000837080008390800087E
:1000100000000000000000000000000000000000E0
:100020000000000000000000000000003B08000885
:1000300000000000000000003D0800083F08000824
:10004000B100000800000000B1000008B100000885
:10005000B1000008B1000008B1000008B1000008BC
:1000600000000000B1000008B1000008B100000865
:10007000B1000008B1000008B10000080000000055
:10008000B10000080000000000000000B1000008FE
:1000900000000000B1000008B1000008B100000835
:1000A00000000000B100000800000000B1000008DE
:0400B000FEE7000067
:1000B40010B5064C2378002B07D1054B002B02D03A
:1000C400044800E000BF0123237010BD0C00002091
:1000D40000000000F8110008044B10B5002B03D0F9
:1000E4000349044800E000BF10BDC0460000000002
:1000F40010000020F8110008002243088B4274D33A
:1001040003098B425FD3030A8B4244D3030B8B4214
:1001140028D3030C8B420DD3FF22090212BA030C1D
:100124008B4202D31212090265D0030B8B4219D3FE
:1001340000E0090AC30B8B4201D3CB03C01A52411E
:10014400830B8B4201D38B03C01A5241430B8B4266
:1001540001D34B03C01A5241030B8B4201D30B034F
:10016400C01A5241C30A8B4201D3CB02C01A524176
:10017400830A8B4201D38B02C01A5241430A8B4239
:1001840001D34B02C01A5241030A8B4201D30B0222
:10019400C01A5241CDD2C3098B4201D3CB01C01A3C
:1001A400524183098B4201D38B01C01A5241430946
:1001B4008B4201D34B01C01A524103098B4201D334
:1001C4000B01C01A5241C3088B4201D3CB00C01AA1
:1001D400524183088B4201D38B00C01A5241430819
:1001E4008B4201D34B00C01A5241411A00D201463E
:1001F400524110467047FFE701B5002000F006F8B1
:1002040002BDC0460029F7D076E770477047C04664
:1002140072B6FEE700B591B03022002104A800F0C8
:10022400E1FF10220021684600F0DCFF0223049362
:10023400013B07930F33089304A800F079FB0028CF
:100244000DD107230093002301930293039300210C
:10025400684600F0E5FD002803D111B000BDFFF7AA
:10026400D7FFFFF7D5FF0000F0B5C64600B586B04E
:1002740000F02AFBFFF7CEFF1422002101A800F0B2
:10028400B1FF494A51698020800201435161536999
:1002940003400093009B454B0193902001A9C005A6
:1002A40000F058FE00F00CF93F237F2200210020CB
:1002B40000F0F9F93E4A0021242000F0A7FA3D4A53
:1002C4000A210E2000F0A2FA3B4A0A21362000F04F
:1002D4009DFA3A4A0A215E2000F098FA00F0CEF81E
:1002E40012E0312255E0312228213D2000F054FA59
:1002F400012F57D030222821652000F04DFA00F05C
:10030400BDF8502000F002FB9024E40508212000F1
:1003140000F0E6FE060080210901200000F0E0FE66
:100324000500804680214901200000F0D9FE040028
:10033400070034232C221221042000F05FF9342317
:10034400542212212E2000F059F934237C22122148
:10035400562000F053F9731E5A425341DBB208226F
:100364001C21182000F0B8F9013D6B425D41EBB24D
:1003740008221C21402000F0AFF9013C63425C419B
:10038400E3B208221C21682000F0A6F9012EA8D0AF
:1003940030222821152000F0FFF94346012BA2D07A
:1003A4003022A1E73122A6E700100240081800001D
:1003B400101200081C120008241200082C12000855
:1003C40010B5431E9841C2B2802190208900C00517
:1003D40000F08DFE10BD70B50600072415E09025D1
:1003E400ED0500222021280000F081FE3300E340C7
:1003F40001221A408021280000F079FE01222021E8
:10040400280000F074FE013C64B2002CE7DA70BDF1
:1004140010B543425841C2B290201021C00500F0EB
:1004240066FE10BD10B504000020FFF7C9FF0120CF
:10043400FFF7EEFF2000FFF7CEFF0020FFF7E8FFF5
:1004440010BD10B504000120FFF7BAFF0120FFF72B
:10045400DFFF2000FFF7BFFF0020FFF7D9FF10BD2B
:10046400002304E0044A0021D15401339BB28022CA
:10047400D2009342F6D370472800002070B50025BF
:100484000CE0EB01E3180D4AD05CFFF7DAFF01340E
:10049400E4B263B2002BF4DA0135EDB2072D0CD8C7
:1004A40028005038C0B2FFF7BDFF0220FFF7BAFFA3
:1004B4001020FFF7B7FF0024EBE770BD28000020F1
:1004C40030B587B01422002101A800F08BFE3B4A0E
:1004D40051698020800201435161536903400093B4
:1004E400009BEC239B0001930123029302330493AA
:1004F4009024E40501A9200000F02CFD0122102124
:10050400200000F0F4FD80256D0000222900200069
:1005140000F0EDFD0A2000F0F9F901222900200085
:1005240000F0E5FD0A2000F0F1F9AE20FFF77AFFB4
:100534000220FFF777FF1020FFF774FF4020FFF73A
:1005440071FFA120FFF76EFFC820FFF76BFFA62005
:10055400FFF768FFA820FFF765FF3F20FFF762FF62
:10056400D320FFF75FFF0020FFF75CFFD520FFF7E4
:1005740059FF8020FFF756FFD920FFF753FF2220B1
:10058400FFF750FFDA20FFF74DFF1220FFF74AFF75
:10059400DB20FFF747FF2020FFF744FF8120FFF710
:1005A40041FF7F20FFF73EFFAF20FFF73BFFFFF740
:1005B40057FFFFF763FF07B030BDC046001002408D
:1005C40010B543B2002B0EDB3F290CD8CC0807230F
:1005D4001940E4010019002A06D001228A40064984
:1005E4000B5C13430B5410BD01228A4002490B5C7F
:1005F40093430B54F7E7C04628000020F0B583B0BE
:1006040007000E0001921D00904201D801901700CE
:10061400AE4210D82B0035001E000CE00022290049
:100624002000FFF7CDFF0134E4B2A74201D3230633
:10063400F4D50135EDB2AE4203D33F2D01D8019C70
:10064400F3E703B0F0BD70B505000C0016003F2AB7
:1006540010D8884201D804000D00A5420AD363B221
:10066400002B07DB012231002000FFF7A9FF013432
:10067400E4B2F2E770BD70B506000D00140043B299
:10068400002B0FDB914209D80C00150006E0012273
:1006940021003000FFF794FF0134E4B2A54201D3F6
:1006A4003F2CF4D970BDF8B507000D0014001E00EE
:1006B4000A002100FFF7C7FF320021003800FFF7CE
:1006C400C2FF320029003800FFF7D5FF32002900AD
:1006D4002000FFF7D0FFF8BDF0B5DE4657464E4682
:1006E4004546E0B583B0151E98460AD083B29A46B3
:1006F400831A01938BB299468E1A87188B469344BA
:1007040045E00122FFF75CFF03B0F0BCBB46B246F4
:10071400A946A046F0BD6A1E6A430132691C6943BA
:10072400934209D38B4207D8002805DB7F2803DCDA
:10073400002E01DB3F2E22DD013420B2B84224DC3E
:1007440084B25346E21A12B24B46F31A1BB2524316
:100754005B43D3182A006A4341460029DBD0934205
:10076400EAD80028E8DB7F28E6DC002EE4DB3F2E15
:10077400E2DCF1B2C0B20122FFF722FFDCE7F1B202
:10078400C0B20122FFF71CFFD6E7013636B25E4540
:10079400BADC0198D2E70000F8B5CE46474680B5EA
:1007A40007000E001300203BDBB23A2B00D92022B5
:1007B400203A53009A185200134B9146994400254D
:1007C40016E00134E4B2072C10D833193F2BF8DCBF
:1007D4007B197F2BF5DC4346234101221A40A119E2
:1007E400C9B2E819C0B2FFF7EBFEEAE70135EDB292
:1007F400052D04D84B465B5D98460024E3E7C0BC56
:10080400B946B046F8BDC0463412000870B50400BD
:100814000E00150006E0013531002000FFF7BCFF93
:100824000734E4B22A78002A02D063B2002BF2DA49
:1008340070BDFEE7FEE77047704710B500F054F84E
:1008440010BD000082B00A4B9969012211439961DD
:1008540099690A400092009ADA69802149050A439D
:10086400DA61DB690B400193019B02B07047C0461B
:10087400001002407047000010B504000F4B1978B7
:10088400FA208000FFF738FC01000D4B1868FFF7D1
:1008940033FC00F063FC00280DD1032C01D90120A6
:1008A4000AE0013000222100404200F027FC054B01
:1008B4001C60002000E0012010BDC04604000020A0
:1008C400000000200800002010B5064A136810211B
:1008D4000B4313600320FFF7CFFFFFF7B3FF0020A4
:1008E40010BDC04600200240034A1168034B1B7828
:1008F4005B1813607047C0462804002004000020E1
:10090400014B18687047C0462804002070B50400E5
:10091400FFF7F6FF0500631C02D0044B1B78E418B4
:10092400FFF7EEFF401BA042FAD370BD0400002085
:1009340070B582B0041E00D12EE20368DB0726D511
:10094400AE4B5A680C231340042B18D0AB4B5A6897
:100954000C231340082B0ED06368012B3CD0002BD2
:1009640051D1A64B1A68A6490A401A601A68A549CB
:100974000A401A6036E0A14B5B68DB03ECD59F4B61
:100984001B689B0303D56368002B00D107E223682F
:100994009B0772D5994B5B680C221A425DD0974B2A
:1009A4005A680C231340082B53D0E368002B00D162
:1009B40085E0924A136801210B431360FFF7A0FFFF
:1009C40005008E4B1B689B0770D4FFF799FF401BF3
:1009D4000228F6D90320E0E1884A116880235B02EB
:1009E4000B4313606368002B25D0FFF789FF0500D4
:1009F400824B1B689B03CAD4FFF782FF401B642809
:100A0400F6D90320C9E1052B09D07C4B1A687C492F
:100A14000A401A601A687B490A401A60E2E7774B79
:100A240019688022D2020A431A601968802252028D
:100A34000A431A60D6E7FFF763FF05006F4B1B6894
:100A44009B03A4D5FFF75CFF401B6428F6D9032061
:100A5400A3E16A4B5B68DB03A7D4684B1B689B0765
:100A640003D5E368012B00D09BE164490B68F822AD
:100A740093432269D20013430B6023681B0744D5B8
:100A8400E369002B2ED05D4A536A01210B43536264
:100A9400FFF736FF0500594B5B6A9B0735D4FFF718
:100AA4002FFF401B0228F6D9032076E153490B6837
:100AB400F82293432269D20013430B60DDE74F4AC7
:100AC400136801218B431360FFF71AFF05004B4B9A
:100AD4001B689B07D1D5FFF713FF401B0228F6D9EB
:100AE40003205AE1454A536A01218B435362FFF7BD
:100AF40007FF0500414B5B6A9B0706D5FFF700FF24
:100B0400401B0228F6D9032047E123685B0700D481
:100B140080E03A4BDB69DB001DD4384AD169802080
:100B240040050143D161D36903400193019B012531
:100B3400354B1B68DB0510D5A368012B21D0002B96
:100B440036D12E4B1A6A01218A431A621A6A03317A
:100B54008A431A621AE00025EAE72B4A11688023C7
:100B64005B000B431360FFF7CBFE0600264B1B68AC
:100B7400DB05E1D4FFF7C4FE801B6428F6D903200B
:100B84000BE11E4A136A01210B431362A368002B75
:100B940024D0FFF7B5FE0600184B1B6A9B0737D419
:100BA400FFF7AEFE801B194B9842F5D90320F4E001
:100BB400052B09D0114B1A6A01218A431A621A6A59
:100BC40003318A431A62E1E70C4B1A6A04210A438F
:100BD4001A621A6A03390A431A62D7E7FFF790FECA
:100BE4000600064B1B6A9B0712D5FFF789FE801B84
:100BF400064B9842F5D90320CFE0C04600100240CE
:100C0400FFFFFEFFFFFFFBFF0070004088130000A2
:100C1400012D33D02368DB0610D56369012B33D053
:100C2400053351D1654A536B04218B435363536B92
:100C3400F4318B43A169C9000B435363236A002B2E
:100C440000D1B0E05D4A51680C220A40082A00D164
:100C54008AE0022B4FD0594A136859490B4013605C
:100C6400FFF74EFE0400554B1B689B017AD5FFF736
:100C740047FE001B0228F6D903208EE04F4AD369B1
:100C840050490B40D361C5E74C4B5A6B04210A43CE
:100C94005A635A6B03390A435A63FFF731FE05005E
:100CA400464B5B6B9B0706D4FFF72AFE401B0228CA
:100CB400F6D9032071E041494B6BF8229343A269B2
:100CC400D20013434B63B9E73C4B5A6B04210A43EC
:100CD4005A635A6B03398A435A63FFF711FE0500BE
:100CE400364B5B6B9B07A9D5FFF70AFE401B022816
:100CF400F6D9032051E0314A136831490B4013609F
:100D0400FFF7FEFD05002D4B1B689B0106D5FFF781
:100D1400F7FD401B0228F6D903203EE0274BDA6A90
:100D24000F218A43E16A0A43DA625A6826490A4073
:100D3400A16A606A01430A435A6019688022520416
:100D44000A431A60FFF7DCFD04001C4B1B689B017F
:100D540006D4FFF7D5FD001B0228F6D903201CE0BA
:100D640000201AE0002018E0012B1ED0134B5A6813
:100D7400D96A80235B021340606A834217D10F2330
:100D84000B40E16A8B4214D1F0239B031A40A36AFF
:100D94009A4210D1002000E0012002B070BD012071
:100DA400FBE70120F9E70020F7E70120F5E7012040
:100DB400F3E70120F1E70120EFE7C046001002400D
:100DC400FFFFFFFEFFFFFFEFFFFFC2FF10B5104B59
:100DD4005A680C231340082B01D00E4810BD910C07
:100DE400073319400C48445C0949C96A0B400B4954
:100DF400C95CD30304D50748FFF77EF96043EDE7E8
:100E040063011B1B9801C01AC00000190002E5E72A
:100E14000010024000127A00A8130008B81300085A
:100E240070B504000D00002800D17EE0434B1A6821
:100E3400012313408B420AD240490B680122934399
:100E44002B430B600B681A40AA4200D06FE0236862
:100E54009A070ED55B0705D5394A5168E023DB00B4
:100E64000B435360364A5368F0218B43A1680B430C
:100E740053602368DB072DD56368012B1ED0022B3A
:100E840022D02F4A1268920753D52D494A6803206D
:100E9400824313434B60FFF733FD0600284B5B6826
:100EA4000C221A4063689B009A4213D0FFF728FD76
:100EB400801B244B9842F1D9032035E0204A126864
:100EC4009203E2D401202FE01D4A12689201DCD47F
:100ED400012029E0194B1A6801231340AB4209D9B8
:100EE40016490B68012293432B430B600B681A408D
:100EF400AA4220D123685B0706D5114A53681249D8
:100F04000B40E1680B435360FFF760FF0C4B5A68DA
:100F140012090F2313400D4AD35CD8400C4B1860C0
:100F24000320FFF7A9FC002070BD0120FCE701208D
:100F3400FAE70120F8E70120F6E7C0460020024066
:100F44000010024088130000FFF8FFFF9813000808
:100F540000000020F0B583B0002357E084685F00F0
:100F64000326BE40B4432600CC68BC4034438460AE
:100F7400446894434A681609012232409A40224345
:100F8400426053E0DC080834A400265805321A40B5
:100F940092000F279740BE430F6997403A003243AF
:100FA400225057E0032600E00026A64034003C43CC
:100FB40002329200444E9451444A9468EA43260013
:100FC400AE434F68FF0201D52C4326003F4CA66078
:100FD400E468260016404F68BF0201D52C43260062
:100FE4003A4CE6606468260016404F68BF0301D59A
:100FF4002C432600354C6660246822404E68F60374
:1010040001D52A002243314C226001330C682200AE
:10101400DA4057D001229A40250015401442F4D0FA
:1010240003244E683440013C012C97D903224C68B8
:101034002240032A09D0C2685E000324B440A243BC
:1010440014008A68B2402243C26003224C682240E2
:10105400022A97D004685E0003221700B740BC43FD
:101064004F683A40B24022430260C02292024C6868
:101074001442CAD0164CA66901221643A661A4697B
:1010840022400192019A9A08941CA4000E4EA7597A
:1010940003241C40A4000F26A640B7439026F6055F
:1010A400B04281D00B4EB04208D00B4EB04207D0B4
:1010B4000A4EB04200D175E7052676E7012674E7AB
:1010C400022672E703B0F0BD0000014000040140B5
:1010D400001002400004004800080048000C0048CA
:1010E40003690B4201D0012070470020FCE7002A6D
:1010F40001D0816170478162FCE7000070B500286F
:1011040011DB8308134EC0339B009D5903242040F8
:10111400C000FF2214008440A54389010A40824094
:101124002A439A5170BD0F230340083B9B080633A2
:101134009B00094A944663445C6803221040C00043
:10114400FC3215008540AC4389010A4082402243A9
:101154005A60E7E700E100E000ED00E00138802399
:101164005B0498420FD2094A50600948036A1B0283
:101174001B0AC02109060B43036200239360073353
:101184001360002070470120FCE7C04610E000E037
:1011940000ED00E00C4885460C4880470C4A0D4B96
:1011A4000D4C03E021680434116004329A42F9D3EF
:1011B4000A4A0B4B002101E0116004329A42FBD32E
:1011C400FFF752F87047000000100020790800086B
:1011D400000000200C000020D01300080C000020A8
:1011E4002C04002003008218934200D17047197028
:1011F4000133F9E7F8B5C046F8BC08BC9E46704711
:0C120400F8B5C046F8BC08BC9E46704718
:1012100043504C44204D4F4E00000000494F32389F
:1012200000000000494F333300000000494F3334C1
:101230000000000000000000000000005F0000004F
:10124000000700070000147F147F1400242A7F2A5F
:10125000120023130864620036495620500000082B
:1012600007030000001C224100000041221C000076
:101270002A1C7F1C2A0008083E08080000807030E5
:101280000000080808080800000060600000201046
:10129000080402003E5149453E0000427F400000E4
:1012A0007249494946002141494D33001814127FC3
:1012B00010002745454539003C4A49493100412144
:1012C00011090700364949493600464949291E0097
:1012D0000036360000000056360000000814224197
:1012E0000000141414141400004122140800020118
:1012F000590906003E415D594E007C1211127C00D6
:101300007F49494936003E41414122007F414141E8
:101310003E007F49494941007F09090901003E41DA
:10132000415173007F0808087F0000417F410000A1
:101330002040413F01007F08142241007F4040408F
:1013400040007F020C027F007F0408107F003E41B6
:1013500041413E007F09090906003E4151215E00DE
:101360007F091929460026494949320003017F01B6
:1013700003003F4040403F001F2040201F003F40EF
:1013800038403F006314081463000304780403002A
:101390006159494D430000000000000000000000BA
:1013A00001020304060708090203040506070809E9
:1013B0000A0B0C0D0E0F101001020304050607089E
:0813C000090A0B0C0D0E0F10C1
:0413C800DD0000083C
:0413CC00B500000860
:0C13D00000127A00010000000400000080
:040000050800119945
:00000001FF
